:100000005EC300008DC300008BC3000089C30000E5
:1000100087C3000085C3000083C3000081C30000C4
:100020007FC300007DC300007BC3000079C30000D4
:1000300077C3000075C3000073C3000071C30000E4
:100040006FC300006DC300006BC3000069C30000F4
:1000500067C3000065C3000063C300000C94B117C0
:100060005FC300000C94861D0C94B61D59C300009C
:1000700057C3000055C3000053C3000051C3000024
:100080004FC300004DC300004BC3000049C3000034
:100090000C942D1E0C945D1E43C3000041C3000050
:1000A0003FC300003DC300003BC3000039C3000054
:1000B00037C3000035C3000033C3000031C3000064
:1000C0002FC300002DC300002BC300000C94D41ECE
:1000D0000C94041F25C300000C947B1F0C94AB1FD1
:1000E0001FC3000005A84CCDB2D44EB93836A902C2
:1000F0000C50B9918688083CA6AAAA2ABE00000026
:10010000803FAED580A81FD300408D142002A1C827
:10011000DA02817FD9F1DB40A4A6AF020119802069
:100120000029260A10206002010308060C0B0104B6
:10013000040709020401040604060607060607066A
:10014000060102070907050E0B09090A09080A0B2F
:1001500005060B090E0C0A080A0A07090B0B0F0B00
:100160000A09030403080802060705070504070730
:10017000030308030B0706070705040407070B071B
:100180000706040104090800000000FE0B1E001E03
:100190000000002020F02E20F02E20010F01010F82
:1001A0000101011C22FF42820C06081F0808073CBF
:1001B00042423C00C020108C42408000000C0201F2
:1001C0000000000708080700805C62E2121CA060C3
:1001D0002000070C0808080706090808041E00E0AC
:1001E00018040207182040020418E04020180724D1
:1001F00024187E1824240000000000000040404025
:1002000040FC4040404000000000070000000000AB
:100210000028180000000001010101000800C0389A
:10022000060C030000F804020204F80304080804A2
:10023000030404FE0000080F080C02028244380C7C
:100240000A0908080C04024262528C0808080804D3
:10025000038040201804FE0001010101010F01107C
:100260001C121222C2080808080403E05824226263
:10027000820304080804030402020282720E0000D2
:10028000000C0300001CA24242A21C070808080838
:10029000073844828244F808080404030020082038
:1002A00000281840A0A01010100800000001010153
:1002B0000220202020202020202001010101010116
:1002C00001010108101010A0A0400201010100006E
:1002D000000C0282621C00000B0000C0300804C445
:1002E000221212E2320408F0000F10204F88888496
:1002F0008F898844261108000000C0380638C000E5
:10030000000008080E09010101090E08080202FE9A
:1003100042424264980008080F080808080403F0E5
:10032000080402020202041E01020408080808046C
:10033000020202FE020202020408F008080F080886
:1003400008080402010202FE424242E206000808D6
:100350000F080808080C020202FE424242E20608A8
:10036000080F0808000000F008040202024244CE10
:1003700040010204080808080807000202FE424281
:10038000404242FE020208080F08080008080F0851
:10039000080202FE020208080F0808000202FE021C
:1003A000020C08080700000202FE4242A0120A06E0
:1003B000020008080F080800010A0C08080202FEE3
:1003C00002020000000008080F080808080C0202DA
:1003D00002FE0C30C0000080700CFE020208080F04
:1003E000080801020E0108080F08080202FE0810A2
:1003F00020C00202FE020208080F080800000102E5
:100400000F0000F00804020202020408F0010204D6
:10041000080808080402010202FE828282443808A9
:10042000080F0808000000F0080402020202040895
:10043000F0010204080818282442410202FE424248
:10044000C22418000008080F080800030408081850
:1004500024224242840E0E0408080804030E0202FD
:1004600002FE0202020E000008080F080800000247
:1004700002FE0202000202FE02020000030408085B
:10048000080403000002021EE2000000E21E020255
:10049000000000000708070000000002060E72803E
:1004A00002825EE20000E21E020200000000030C75
:1004B000030000030C030000000202060AB240B071
:1004C0000A06020208080C0A0100010A0C080802C8
:1004D000020E32C0201A060202000008080F0808A7
:1004E000000000000E028262120E0200080E0908CF
:1004F0000808080C02FE02027F40400678800000D7
:1005000000030C0202FE40407F40300C02020C301F
:10051000400000000000000000000000000000009B
:10052000004040404040404040020C00004020203D
:10053000A0C000060909040F0804FE4020204080E6
:1005400000070808080403C0202020400708080806
:10055000048040202044FE0003040808040F04C067
:10056000A0A0A0C0070808080420FC2222080F0849
:100570000800C0202020E020304D4A4A4A4930047B
:10058000FE402020C000080F0800080F0840E200CD
:10059000080F080040E240403F04FE008060202039
:1005A00000080F0901020C080804FE00080F0840AB
:1005B000E0402020C0402020C000080F0800080FA5
:1005C0000800080F0840E0402020C000080F080085
:1005D000080F0880402020408003040808040340DE
:1005E000E04020204080407F4408080403804020F1
:1005F0002040E000070C0808447F4040E0402020F5
:10060000080F080000C02020600C09090620F8200F
:1006100020000F080420E0000020E0000007080888
:10062000040F0420E0200020E0200000070807005D
:100630000020E0200020E0200020E0200000070C47
:100640000300070C0300002060A000A06020080C3D
:100650000A010A0C0820E0200020E0204040231C72
:10066000070000006020A06020080C0B08080C8028
:10067000780402001F2040FEFF0204788040201F03
:100680000000808080000000008001000000010167
:10069000010100FE020202020202FE0F0808080821
:1006A00008080F00030C0F30333C3FC0C3CCCFF021
:1006B000F3FCFF005E13211EC81E6F1F18201124BB
:1006C0001FBECFEFD1E2DEBFCDBF00E00CBF12E016
:1006D000A0E0B2E0EEE2FCE400E00BBF02C0079055
:1006E0000D92AA39B107D9F726E0AAE9B2E001C014
:1006F0001D92A030B207E1F713E0CFE5D3E000E0B0
:1007000006C021970109802FFE010E94A623CA3549
:10071000D10780E00807A9F70E9493140C941526CE
:100720006FCCCF93DF93CDB7DEB78AE992E09C011F
:100730002B563F4FF90120812F5F8B569F4FFC01B5
:1007400020838AE992E08B569F4FFC0180818A309A
:1007500030F08AE992E08B569F4FFC011082000036
:10076000DF91CF9108958F929F92AF92BF92CF92D7
:10077000DF92EF92FF920F931F93CF93DF9300D0FE
:100780001F92CDB7DEB780910E0290910F02A0911B
:100790001002B09111022AE932E028563F4FF901C8
:1007A00020813181F9012081318142815381BC0155
:1007B000CD010E94D916DC01CB017C018D01809115
:1007C000120290911302A0911402B09115029C01A3
:1007D000AD01C801B7010E94F214DC01CB01BC01DC
:1007E000CD010E943C177B018C0180910602909103
:1007F0000702A0910802B09109029C01AD01C80155
:10080000B7010E94D916DC01CB017C018D018091DA
:100810000A0290910B02A0910C02B0910D029C0172
:10082000AD01C801B7010E94F214DC01CB016C01DB
:100830007D0180911602882F90E0A0E0B0E0BC011D
:10084000CD010E948615DC01CB019C01AD01C701E1
:10085000B6010E94F214DC01CB01BC01CD010E9463
:10086000C315DC01CB0189839A83AB83BC83898167
:100870009A81AB81BC81BC01CD013CD4882349F471
:1008800089819A81AB81BC81BC01CD01FBD38823D6
:1008900029F019821A821B821C8212C089819A81D6
:1008A000AB81BC8120E030E040E853E4BC01CD01E5
:1008B0000E94DD15DC01CB0189839A83AB83BC8365
:1008C00020E030E0A90169817A818B819C810E94BE
:1008D000561588236CF489819A81AB81BC81B0580C
:1008E000BC01CD010E945A15DC01CB01819508C0E5
:1008F00069817A818B819C810E945A15DC01CB0130
:100900008093DD058AE992E08B569F4FFC01808140
:10091000882341F44EED55E067E172E08DED95E0FE
:100920000E942C128AE992E08B569F4FFC01808135
:10093000882341F44EED55E067E172E08DED95E0DE
:100940000E942B132AE932E0C90181589F4FFC0114
:1009500080819181A281B3810196A11DB11DA90160
:1009600041585F4FFA0180839183A283B383C90109
:1009700081589F4FFC0180819181A281B381892B95
:100980008A2B8B2BA1F42AE932E0C9018D579F4FA6
:10099000FC0180819181A281B3810196A11DB11DCD
:1009A0002D573F4FF90180839183A283B3838AE956
:1009B00092E081589F4FFC0180819181A281B38197
:1009C000BC01CD010E9486157B018C018AE992E071
:1009D00089579F4FFC0180819181A281B3819C0145
:1009E000AD01C801B7010E94D916DC01CB016C0131
:1009F0007D018AE992E08D579F4FFC0180819181B2
:100A0000A281B381BC01CD010E9486154B015C011E
:100A10008AE992E089579F4FFC0180819181A281F0
:100A2000B3819C01AD01C501B4010E94D916DC015E
:100A3000CB0120E030E040E85FE4BC01CD010E9442
:100A4000D916DC01CB019C01AD018AE992E0885600
:100A50009F4FFC0100811181C701B6010E94F21471
:100A6000DC01CB01F80180839183A283B3832AE95F
:100A700032E0C90185579F4FFC0180819181A2819D
:100A8000B3810196A11DB11D25573F4FF901808308
:100A90009183A283B3838AE992E085579F4FFC013B
:100AA00080819181A281B381892B8A2B8B2BA1F428
:100AB0002AE932E0C90181579F4FFC018081918171
:100AC000A281B3810196A11DB11D21573F4FF901AC
:100AD00080839183A283B38324DE00000F900F9064
:100AE0000F900F90DF91CF911F910F91FF90EF909A
:100AF000DF90CF90BF90AF909F908F900895CF934D
:100B0000DF9300D000D0CDB7DEB784E090E06AD2AA
:100B10008AE992E046EA50E060E070E00E94BC257D
:100B20002AE932E08AE992E02A563F4FFC013583F8
:100B300024832AE932E08AE992E028563F4FFC01FB
:100B400037AF26AF2AE932E08AE992E029573F4FD2
:100B5000FC01338B228B2AE932E08AE992E0885942
:100B60009F4FFC01318320838AE992E02AE932E039
:100B7000FC01338322838AE992E0FC018481958120
:100B800021E030E0FC01318320838AE992E028E112
:100B900032E0FC01318720872AE932E08AE992E0DD
:100BA00026563F4F88569F4FFC01318320838AE9A8
:100BB00092E09C0129573F4F8AE097EDA3E2BCE306
:100BC000F90180839183A283B38341E050E060E028
:100BD00070E08DED95E00E94BC2544E050E060E0BF
:100BE00070E08EED95E00E94BC258EED95E00E94B0
:100BF0000C121B821C821D821E821A82198211C055
:100C00008B819C81AD81BE818093DE059093DF0551
:100C1000A093E005B093E10589819A8101969A83BA
:100C2000898389819A811816190654F7000026963F
:100C30000FB6F894DEBF0FBECDBFDF91CF91089500
:100C4000CF93DF93CDB7DEB70000DF91CF9108954A
:100C5000CF93DF93CDB7DEB76A970FB6F894DEBFB8
:100C60000FBECDBF80E290E09E838D8319821A82F1
:100C70001B821C828D819E81809741F458D0DC01BB
:100C8000CB0189839A83AB83BC8342C081E090E02F
:100C90009A878987CE010996FC01908181E0913085
:100CA00009F480E0882F90E098878F838F81988562
:100CB000009719F00197B9F02BC080E090E0A0EF09
:100CC000BFE78F87988BA98BBA8B1B861C861D86E6
:100CD0001E868B859C85AD85BE8589839A83AB8373
:100CE000BC83000015C080E090E0A0EFBFE78B8BD5
:100CF0009C8BAD8BBE8B1F8A188E198E1A8E8B899A
:100D00009C89AD89BE8989839A83AB83BC830000AB
:100D100089819A81AB81BC81BC01CD016A960FB6F5
:100D2000F894DEBF0FBECDBFDF91CF910895CF9372
:100D3000DF9300D01F92CDB7DEB780E090E0A0E84F
:100D4000BFE789839A83AB83BC8389819A81AB8116
:100D5000BC81BC01CD010F900F900F900F90DF91DF
:100D6000CF910895CF93DF93CDB7DEB76A970FB6D3
:100D7000F894DEBF0FBECDBF80E290E09E838D83EE
:100D800019821A821B821C828D819E81809741F478
:100D900058D0DC01CB0189839A83AB83BC8342C0EA
:100DA00081E090E09A878987CE010996FC019081C5
:100DB00081E0913009F480E0882F90E098878F835C
:100DC0008F819885009719F00197B9F02BC080E0CA
:100DD00090E0A0EFBFEF8F87988BA98BBA8B1B8613
:100DE0001C861D861E868B859C85AD85BE85898368
:100DF0009A83AB83BC83000015C080E090E0A0EF35
:100E0000BFEF8B8B9C8BAD8BBE8B1F8A188E198E80
:100E10001A8E8B899C89AD89BE8989839A83AB831D
:100E2000BC83000089819A81AB81BC81BC01CD016A
:100E30006A960FB6F894DEBF0FBECDBFDF91CF919B
:100E40000895CF93DF9300D01F92CDB7DEB780E037
:100E500090E0A0E8BFEF89839A83AB83BC8389814C
:100E60009A81AB81BC81BC01CD010F900F900F9096
:100E70000F90DF91CF910895CF93DF93CDB7DEB779
:100E80006A970FB6F894DEBF0FBECDBF80E290E048
:100E90009E838D8319821A821B821C828D819E8182
:100EA000809741F45BD0DC01CB0189839A83AB83CB
:100EB000BC8345C081E090E09A878987CE0109967E
:100EC000FC01908181E0913009F480E0882F90E06E
:100ED00098878F838F819885009719F00197B9F0D3
:100EE0002EC080E090E0A8EFBFEF8F87988BA98B92
:100EF000BA8B1B861C861D861E868B859C85AD85C0
:100F0000BE8589839A83AB83BC83000018C08FEFB2
:100F10009FEFAFEFBFE78B8B9C8BAD8BBE8B8FEFC3
:100F20009FEFDC018F8B988FA98FBA8F8B899C895B
:100F3000AD89BE8989839A83AB83BC830000898194
:100F40009A81AB81BC81BC01CD016A960FB6F89441
:100F5000DEBF0FBECDBFDF91CF910895CF93DF935A
:100F600000D000D01F921F92CDB7DEB71B821C822B
:100F70001D821E8281E090E098878F83CE010796C4
:100F8000FC01908181E0913009F480E0882F90E0AD
:100F90009A83898389819A81009719F0019751F08A
:100FA00012C080E090E0A0ECBFEF8B839C83AD8308
:100FB000BE8309C08FEF9FEFAFEFBFE78B839C83AA
:100FC000AD83BE8300008B819C81AD81BE81BC015D
:100FD000CD0128960FB6F894DEBF0FBECDBFDF91CE
:100FE000CF910895CF93DF931F921F92CDB7DEB7B5
:100FF0009A83898341DFDC01CB018093EE059093D6
:10100000EF05A093F005B093F105A8DFDC01CB015B
:101010008093E2059093E305A093E405B093E50582
:1010200017DEDC01CB018093EA059093EB05A093DA
:10103000EC05B093ED057BDEDC01CB018093E6058A
:101040009093E705A093E805B093E9058BDEDC01FA
:10105000CB018093F2059093F305A093F405B09330
:10106000F505EFDEDC01CB018093F6059093F705E3
:10107000A093F805B093F90500000F900F90DF9151
:10108000CF910895CF93DF9300D01F92CDB7DEB7F5
:1010900069837A838B839C838091EA059091EB0529
:1010A000A091EC05B091ED059C01AD0169817A81BB
:1010B0008B819C810E945615882391F08091F205C6
:1010C0009091F305A091F405B091F5059C01AD0157
:1010D00069817A818B819C810E945615882311F445
:1010E00081E001C080E00F900F900F900F90DF9192
:1010F000CF910895CF93DF93CDB7DEB72F970FB67B
:10110000F894DEBF0FBECDBF6C877D878E879F872B
:10111000198280E290E09B838A838A819B818097F9
:1011200049F48C859D85AE85BF85BC01CD0138D045
:1011300089832CC08C859D85AE85BF858C839D83DE
:10114000AE83BF8388859985AA85BB858827992723
:10115000A07FBF770097A04FBF47A9F488859985E6
:10116000AA85BB85AF70BB27892B8A2B8B2B41F4BB
:101170008C819D81AE81BF81892B8A2B8B2B19F0AD
:1011800081E090E002C080E090E0898389812F9621
:101190000FB6F894DEBF0FBECDBFDF91CF9108959B
:1011A000CF93DF9300D000D01F921F92CDB7DEB750
:1011B0006D837E838F8398878D819E81AF81B88573
:1011C00089839A83AB83BC8389819A81AB81BC81FB
:1011D00088279927A078BF770097A048BF4769F470
:1011E00089819A81AB81BC81AF77BB27892B8A2B00
:1011F0008B2B19F081E090E002C080E090E028960F
:101200000FB6F894DEBF0FBECDBFDF91CF9108952A
:10121000CF93DF931F921F92CDB7DEB79A83898356
:1012200089819A81FC01848195810F900F90DF91D3
:10123000CF910895CF93DF9300D000D01F921F92DB
:10124000CDB7DEB79A8389837C836B835E834D83BE
:1012500038872F832F8138854D815E816B817C811A
:1012600089819A810E941723000028960FB6F8946E
:10127000DEBF0FBECDBFDF91CF910895CF93DF9337
:101280001F921F92CDB7DEB79A83898321E932E09E
:1012900089819A81FC013183208389819A81FC01B3
:1012A0001382128200000F900F90DF91CF9108956A
:1012B000CF93DF931F921F92CDB7DEB79A838983B6
:1012C00080E090E00F900F90DF91CF910895CF9341
:1012D000DF931F921F92CDB7DEB79A8389830000F8
:1012E0000F900F90DF91CF910895CF93DF931F92CE
:1012F0001F92CDB7DEB79A83898389819A81BEDF39
:101300002FE532E089819A81FC0131832083898134
:101310009A81FC01148689819A81FC011586898154
:101320009A81FC011786168689819A81FC01108AB0
:1013300089819A8121E0FC01218B00000F900F90A0
:10134000DF91CF910895CF93DF931F921F92CDB776
:10135000DEB79A83898389819A81FC01878186958A
:10136000869586950F900F90DF91CF910895CF933A
:10137000DF931F921F92CDB7DEB79A83898389814D
:101380009A81FC0186810F900F90DF91CF91089593
:10139000CF93DF931F921F92CDB7DEB79A838983D5
:1013A00089819A81FC01218989819A81FC01818549
:1013B000289F802D11240F900F90DF91CF910895D9
:1013C000CF93DF9300D0CDB7DEB79A8389836B8349
:1013D00089819A81FC01808191810896FC0120819C
:1013E000318189819A8140E06B81F9011995000072
:1013F0000F900F900F90DF91CF910895CF93DF93CF
:1014000000D0CDB7DEB79A8389836B8389819A81B7
:101410002B81FC01258700000F900F900F90DF912A
:10142000CF910895CF93DF93CDB7DEB761970FB615
:10143000F894DEBF0FBECDBF988B8F87698B8F85E9
:101440009889FC0186859785892B11F480E072C00C
:101450008F859889FC018685978504969A83898370
:1014600089819A81FC0184918B838B818C838F8508
:101470009889FC018685978505969E838D838D814D
:101480009E81FC0184918F838F81888799898C81CB
:10149000981770F08989282F30E08C81482F50E010
:1014A0008885882F90E0840F951F2817390714F03E
:1014B00080E040C08F85988951D121E0029708F4DF
:1014C00020E0222311F18F859889FC0161898F85A5
:1014D0009889FC01268537858989482F50E08C81C1
:1014E000882F90E0FA01E81BF90BCF010696820FD6
:1014F000931F9D878C878C859D85FC0184918E87A9
:101500008E85869F802D112415C08F859889FC01BA
:1015100021898F859889FC018685978502969A870F
:10152000898789859A85FC0184918B878B85829F29
:10153000802D112461960FB6F894DEBF0FBECDBF8B
:10154000DF91CF9108950F931F93CF93DF931F9255
:101550001F92CDB7DEB79A83898389819A81FC0176
:10156000138689819A8160E06DD289819A81EBDE50
:101570001FEF180F89819A81FADE3FEF380F8981BA
:101580009A81012F20E0432F60E008D000000F90E7
:101590000F90DF91CF911F910F9108950F93CF93EB
:1015A000DF9300D000D01F921F92CDB7DEB79C838F
:1015B0008B836D834E832F8308878B819C81FC01F5
:1015C00015868B819C81BFDE282F81E0988592173C
:1015D00008F480E0882329F08B819C81B4DE81505F
:1015E00088878F818983998188858917D8F08B8135
:1015F0009C8149816D81ACD18D818A839A818E8154
:10160000891760F08B819C81FC0120898B819C81F2
:10161000622F38D28A818F5F8A83F0CF89818F5F72
:101620008983E1CF8B819C814F816D8191D10000B5
:1016300028960FB6F894DEBF0FBECDBFDF91CF91D5
:101640000F9108950F931F93CF93DF931F921F92D3
:10165000CDB7DEB79A83898389819A81FC01158190
:1016600089819A8140D0810F0FEF080F89819A817B
:10167000FC01158189819A817ADE4FEF480F8981BB
:101680009A81FC01348189819A81212F632F86DF21
:1016900000000F900F90DF91CF911F910F9108954F
:1016A000CF93DF9300D0CDB7DEB79A8389836B8366
:1016B0008B81882311F020EA01C021EA89819A8177
:1016C000622F7EDE8B81882311F020EC01C028EC94
:1016D00089819A81622F74DE00000F900F900F9025
:1016E000DF91CF910895CF93DF9300D01F921F9287
:1016F000CDB7DEB79D838C838C819D81FC0186856F
:101700009785892B11F18C819D81FC0121898C8128
:101710009D81FC018685978503969A8389838981BB
:101720009A81FC0184918B838B81882F90E00796AE
:1017300099230CF40796959587959595879595959A
:101740008795289F802D112401C080E00F900F9075
:101750000F900F900F90DF91CF910895CF93DF936B
:1017600000D000D01F921F92CDB7DEB798878F832D
:101770008F819885FC01868597859A8389838981E5
:101780009A81FC0184918B838B81882F90E0382F84
:1017900022278F819885FC018685978501969D83F8
:1017A0008C838C819D81FC0184918E838E81882F16
:1017B00090E0822B932B28960FB6F894DEBF0FBED5
:1017C000CDBFDF91CF910895CF93DF93CDB7DEB733
:1017D0006B970FB6F894DEBF0FBECDBF998F888F81
:1017E0007B8F6A8F888D998DFC011482888D998DED
:1017F000FC0115828A8D9B8D9B838A838A819B81C4
:10180000FC0125913491CF013D832C839B838A83F6
:101810008C819D819F838E838A8D9B8D0296998773
:10182000888788859985FC0184918A878A858B873A
:101830008A8D9B8D03969D878C878C859D85FC0169
:1018400084918E87888D998D2E85FC0126838A8DC3
:101850009B8D0496988B8F878F859889FC01849146
:10186000898B888D998D2989FC0127838A8D9B8D91
:1018700005969B8B8A8B8A899B89FC0184918C8B32
:10188000888D998D2C89FC012087198299818B85FF
:101890009817B8F48981882F90E02E813F81820FBC
:1018A000931F9E8B8D8B8D899E89FC0184918F8BDC
:1018B0002F89888D998D622F83DD89818F5F898340
:1018C000E5CF888D998D3FDE00006B960FB6F894BA
:1018D000DEBF0FBECDBFDF91CF910895CF93DF93D1
:1018E00000D0CDB7DEB79A8389836B8389819A81D3
:1018F000FC0186819B81981720F589819A812B8133
:10190000FC01248389819A81FC0180859B81890F58
:101910008B838B81282F2F7089819A81622F50DDD4
:101920008B81882F90E095958795959587959595CE
:101930008795959587958061282F89819A81622F57
:101940003FDD00000F900F900F90DF91CF91089531
:10195000CF93DF9300D01F92CDB7DEB79A838983F0
:101960006B834C8389819A816B81B8DF89819A81ED
:101970006C8139D000000F900F900F900F90DF9185
:10198000CF910895CF93DF9300D01F92CDB7DEB7EC
:101990009A8389837C836B8389819A812B813C81A3
:1019A000FC01378726878B819C81892B39F08981BF
:1019B0009A81D4DE019711F481E001C080E0882390
:1019C00029F089819A81FC01118605C089819A815B
:1019D00021E0FC01218700000F900F900F900F90E5
:1019E000DF91CF910895CF93DF9300D0CDB7DEB7CD
:1019F0009A8389836B8389819A81A5DC282F81E072
:101A00009B81921708F080E08823A9F089819A8150
:101A10002B81FC01258389819A81FC0125818981A3
:101A20009A81FC018385820F8770806B282F8981C2
:101A30009A81622FC5DC00000F900F900F90DF910C
:101A4000CF910895CF93DF9300D0CDB7DEB79A83BF
:101A500089836B838B81282F2F7389819A81FC0165
:101A6000228789819A81FC018285282F20648981BF
:101A70009A81622FA5DC00000F900F900F90DF91EC
:101A8000CF910895CF93DF9300D0CDB7DEB79A837F
:101A900089836B8389819A81FC018585882359F02C
:101AA00089819A81FC0185852FEF280F89819A8190
:101AB000FC0125872AC089819A81FC0124818981C2
:101AC0009A81FC018681281700F589819A81FC01A1
:101AD000808191810896FC012081318189819A81E0
:101AE000FC0190898B81592F582789819A8142E086
:101AF000652FF901199589819A81FC01848121E082
:101B0000280F89819A81FC01248300000F900F9097
:101B10000F90DF91CF9108950F931F93CF93DF9391
:101B200000D000D01F92CDB7DEB79D838C837F831A
:101B30006E831A8219828E819F81FC0180818823A5
:101B400039F18E819F819C012F5F3F4F3F832E8310
:101B5000FC018081282F8C819D81622F63DC8B8327
:101B60008B81882319F480E090E014C08B81082FCA
:101B700010E08C819D810CDC882F90E0800F911FFC
:101B80009C0189819A81820F931F9A838983D3CF85
:101B900089819A8127960FB6F894DEBF0FBECDBF1C
:101BA000DF91CF911F910F910895CF93DF93CDB720
:101BB000DEB7E3970FB6F894DEBF0FBECDBF9AAB8A
:101BC00089AB6BAB89A99AA9FC0186859785892B7E
:101BD00019F480E090E01BC289A99AA9FC018685CE
:101BE000978502969E878D878D859E85FC018491C1
:101BF0008F878F85898389A99AA9FC018685978516
:101C00000396998B888B88899989FC0184918A8BAA
:101C10008A898B8B8B89882F90E0079699230CF407
:101C200007969595879595958795959587958C8B2E
:101C300089A99AA9FC018685978504969E8B8D8B30
:101C40008D899E89FC0184918F8B8F89888F89A9CA
:101C50009AA9FC018685978505969A8F898F898D2B
:101C60009A8DFC0184918B8F8B8D8C8F89A99AA979
:101C7000FC018685978506969B838A839BA9888D20
:101C8000981778F08BA9282F30E0888D482F50E0E6
:101C90008C8D882F90E0840F951F281739070CF43E
:101CA0006BC08BA98D3039F489A99AA960E016DE42
:101CB00081E090E0ACC18BA98A3009F05AC089A9B3
:101CC0009AA960E00BDE89A99AA9FC0181899C8907
:101CD000989F802D11248DA789A99AA934DB8EA7FE
:101CE00089A99AA9FC0185819DA5890F8FA79FA528
:101CF0008DA5980F8EA5F92FF81B8F2F88AB89A97A
:101D00009AA9FC018485882319F088A918162CF05B
:101D100089A99AA96FA567DE29C089A99AA9FC019A
:101D2000938588A9890F282F277089A99AA9FC0172
:101D300023879EA58DA5292F281B89A99AA9FC0177
:101D4000258389A99AA97EDC89A99AA9FC018485A1
:101D5000813061F489A99AA9FC018385282F220F7B
:101D6000220F220F89A99AA9622F6CDE81E090E0F0
:101D70004EC180E090E04BC19BA9888DF92FF81BE4
:101D80008F2F8BAB89A99AA903DB8D8F1C8289A920
:101D90009AA9E4DC21E0029708F020E02223F9F080
:101DA0008C89482F50E08981882F90E0489F9001CE
:101DB000499F300D589F300D11248BA9882F90E03A
:101DC000289FA001299F500D389F500D11249A0182
:101DD0008A819B81820F931F9B838A8357C08B8943
:101DE000882F90E087709927892B39F08B8987702D
:101DF00098E0292F281B822F8C831E821D821F8230
:101E00009F818BA99817D8F48F81882F90E02A8121
:101E10003B81820F931F9F8F8E8F8E8D9F8DFC0134
:101E2000849188A388A1882F90E02D813E81820F24
:101E3000931F9E838D838F818F5F8F83E1CF8BA9CB
:101E4000882F90E02A813B81820F931F9AA389A358
:101E500089A19AA1FC0184918BA38BA189838C8990
:101E6000482F50E08D819E81489F9001499F300D01
:101E7000589F300D11248C8D882F90E0820F931F76
:101E80002A813B81820F931F9B838A8389A99AA908
:101E9000FC0184818CA389A99AA9FC0185818DA369
:101EA00089A99AA9FC0185858EA3188698858C89B5
:101EB000981708F0A6C0198689A99AA9FC018189FA
:101EC0009985981708F099C089A99AA96EA196DA00
:101ED0008885882319F48985882359F089A99AA9C6
:101EE000FC01858121E0280F89A99AA9422F6CA1C4
:101EF0002FDD1A869A858981981708F06DC08A852A
:101F0000882F90E02885422F50E02981222F30E051
:101F1000429FB001439F700D529F700D11249B0191
:101F2000820F931F2A813B81820F931F98A78FA353
:101F30008FA198A5FC01849189A789A58B878C81A5
:101F40008823C1F08885882F90E09C012F5F3F4F48
:101F50008C89882F90E02817390761F48B85882FAA
:101F600090E02C81222F30E002C0959587952A952C
:101F7000E2F78B8789A99AA9FC018189823021F532
:101F80008985882361F08B85882F90E095958795CA
:101F900095958795959587959595879502C08B859D
:101FA0008F708B878B85882F90E08D55994F9BA7DD
:101FB0008AA78AA59BA5FC0184918CA78CA58B87F9
:101FC00089A99AA96B855EDD89A99AA96B855ADDD5
:101FD0008A858F5F8A878ECF1C869C858D8D98170A
:101FE00040F489A99AA960E04DDD8C858F5F8C87CC
:101FF000F4CF89858F5F89875FCF88858F5F8887DA
:1020000055CF89A99AA96DA1EEDC81E090E0E39615
:102010000FB6F894DEBF0FBECDBFDF91CF9108950C
:10202000CF93DF9300D0CDB7DEB79A8389836B83DC
:1020300089EB90E0FC0110828CEB90E024E4FC0141
:1020400020838B81882329F080E89AE1A6E0B0E024
:1020500004C080EA96E8A1E0B0E029813A81AC01B1
:10206000BD01C90106D00F900F900F90DF91CF9165
:102070000895CF93DF9300D000D0CDB7DEB79A8319
:1020800089834B835C836D837E838B819C81AD814F
:10209000BE81823D9647A105B10548F08B819C81A8
:1020A000AD81BE818D31984CA640B10510F080E025
:1020B0001AC080E094E2A4EFB0E02B813C814D8116
:1020C0005E81BC01CD010E948423DA01C9014097E1
:1020D000A109B109B695A7959795879528EB30E0AA
:1020E000F901808381E026960FB6F894DEBF0FBE1B
:1020F000CDBFDF91CF910895CF93DF9300D0CDB7BF
:10210000DEB79A8389836B8389819A8164EAADD033
:10211000982F81E08927882311F080E038C08981D9
:102120009A813BD0883039F089819A8136D08031CC
:1021300011F081E001C080E0882311F080E027C029
:102140008BEB90E02B81FC01208389819A8164E8EC
:102150008CD0982F81E08927882311F080E017C068
:1021600089819A811AD0282F8B81882F90E08170E5
:102170009927892B11F080E401C088E191E0821752
:1021800009F490E0992311F080E001C081E00F9004
:102190000F900F90DF91CF910895CF93DF931F920F
:1021A0001F92CDB7DEB79A83898389819A81FC011A
:1021B00080810F900F90DF91CF910895CF93DF939F
:1021C00000D0CDB7DEB79B838A838CEB90E024E907
:1021D000FC01208384E689838CEB90E0FC01808104
:1021E000882F90E08071992721E0892B09F420E065
:1021F000222349F08981882311F480E005C0898178
:1022000081508983E9CF81E00F900F900F90DF918B
:10221000CF910895CF93DF9300D0CDB7DEB79A83E7
:1022200089836B838BEB90E02B81FC012083898178
:102230009A8164E81AD0982F81E08927882311F0C9
:1022400080E00DC089819A81A8DF982F81E09832C3
:1022500009F480E0882311F080E001C081E00F9054
:102260000F900F90DF91CF910895CF93DF9300D01F
:102270001F921F92CDB7DEB79C838B836D838CEB4F
:1022800090E02D81FC0120831A82198289819A8134
:102290000196D9F08CEB90E0FC018081881F8827A3
:1022A000881F882361F089EB90E0FC018081282F52
:1022B000287F8B819C81FC01208381E007C089817C
:1022C0009A8101969A838983E1CF80E00F900F90E5
:1022D0000F900F900F90DF91CF910895CF93DF93E0
:1022E00000D01F921F92CDB7DEB79A8389837C837B
:1022F0006B834D8389819A81FC01148A89819A813B
:102300002D81FC01238B89819A81429661E088DED0
:1023100089819A812B813C81B90156DA00000F90A6
:102320000F900F900F900F90DF91CF910895CF9362
:10233000DF9300D01F92CDB7DEB79A8389836B837A
:102340004C8389819A81FC018489882359F08C818E
:10235000882341F489819A81429630DF89819A816C
:10236000FC01148A89819A81FC0184898823C1F443
:1023700089819A819C012E5E3F4F89819A81FC015F
:102380008389880F682FC901B7DE89819A814296B7
:102390002C81222311F420E001C020E4622F3ADFD7
:1023A00089819A8142966B8135DF8C81823059F424
:1023B00089819A81FC01848921E0280F89819A8191
:1023C000FC01248B08C089819A814296F7DE8981BD
:1023D0009A81FC01148A00000F900F900F900F90CB
:1023E000DF91CF910895CF93DF931F921F92CDB7C6
:1023F000DEB79A83898389819A810E94750921E5D4
:1024000032E089819A81FC013183208300000F90A2
:102410000F90DF91CF910895CF93DF931F921F927A
:10242000CDB7DEB79A8389834CE36BE171E080E43A
:1024300093E054DF61E271E080E493E0A3DA61E0CD
:1024400080E493E02DD980E493E07DD800000F90E4
:102450000F90DF91CF910895CF92DF92EF92FF928C
:102460000F93CF93DF93CDB7DEB76C970FB6F89489
:10247000DEBF0FBECDBF988F8F8B7A8F698F5C8F39
:102480004B8FEDB6FEB68DB79EB76C0140E060E0B5
:1024900080E493E05DDA6AE272E080E493E00E9417
:1024A0009F208F89988DFC012081CE010B964AE0F8
:1024B000622F0E94B221CE010B960E9408099A83D6
:1024C000898301962DB73EB7281B390B0FB6F894B8
:1024D0003EBF0FBE2DBF8DB79EB701969C838B83E9
:1024E000CE010B960E940809AC014F5F5F4F6B81D4
:1024F0007C81CE010B9620E030E00E941A098B818E
:102500009C81BC0180E493E007DB8D8340E06CE3B9
:1025100080E493E01DDA8F89988DFC0180814AE088
:1025200050E0682F80E493E00E94B6208D81855CA6
:1025300001E020E044E6682F80E493E02FD840E0FB
:1025400065E680E493E004DA60E372E080E493E01F
:102550000E94202163E372E080E493E00E949F20C8
:10256000898D9A8DFC012081CE0141964AE0622F2F
:102570000E94B221CE0141960E9408099F838E835A
:1025800001962DB73EB7281B390B0FB6F8943EBF06
:102590000FBE2DBF8DB79EB7019699878887CE0154
:1025A00041960E940809AC014F5F5F4F68857985AD
:1025B000CE01419620E030E00E941A098885998575
:1025C000BC0180E493E0A8DA8A8742E06CE380E40F
:1025D00093E0BED9898D9A8DFC0180814AE050E05C
:1025E000682F80E493E00E94B6208A85855C04E031
:1025F00022E044E6682F80E493E00E94CE0A42E0A5
:1026000065E680E493E0A4D96AE372E080E493E0B5
:102610000E942021CE0141960E94E021CE010B961E
:102620000E94E0210FB6F894DEBE0FBECDBE0000C2
:102630000FB6F894FEBE0FBEEDBE6C960FB6F894C2
:10264000DEBF0FBECDBFDF91CF910F91FF90EF9016
:10265000DF90CF900895CF93DF9300D000D0CDB717
:10266000DEB79A8389837C836B835E834D8300000E
:1026700026960FB6F894DEBF0FBECDBFDF91CF9187
:102680000895CF93DF9300D01F92CDB7DEB79A8322
:1026900089837C836B8389819A81019739F48B814B
:1026A0009C81019619F480E493E09DDE00000F9078
:1026B0000F900F900F90DF91CF910895CF93DF93FC
:1026C000CDB7DEB76FEF7FEF81E090E0DADFDF912B
:1026D000CF910895CF93DF93CDB7DEB740E855E2B1
:1026E00060E070E080E090E025D00000DF91CF91C5
:1026F0000895CF93DF9300D000D0CDB7DEB79A8393
:1027000089834B835C836D837E838B819C81AD81C8
:10271000BE81E981FA8126E0AC01BD01CF015CD622
:10272000000026960FB6F894DEBF0FBECDBFDF9136
:10273000CF910895CF93DF9300D000D0CDB7DEB70F
:102740009A8389834B835C836D837E8389819A819D
:1027500081309105B1F0823091051CF4892B39F05C
:102760002EC082309105B9F00397F9F028C08B8113
:102770009C81AD81BE81AC01BD0189E693E0B9DFEA
:102780001EC08B819C81AD81BE81AC01BD0186E004
:1027900094E0AFDF14C08B819C81AD81BE81AC0120
:1027A000BD0183EA94E0A5DF0AC08B819C81AD81E5
:1027B000BE81AC01BD0180E495E09BDF000000001C
:1027C00026960FB6F894DEBF0FBECDBFDF91CF9136
:1027D0000895CF93DF93CDB7DEB70000DF91CF919F
:1027E0000895EF92FF920F931F93CF93DF9300D042
:1027F0001F921F92CDB7DEB7198224D4DC01CB0122
:102800008093590390935A03A0935B03B0935C03A6
:102810002091590330915A0340915B0350915C031E
:102820008091550390915603A0915703B09158039E
:1028300079018A01E81AF90A0A0B1B0BD801C701B2
:1028400080319742A105B10508F43CC0809159033D
:1028500090915A03A0915B03B0915C038093550360
:1028600090935603A0935703B09358033AD0EAD3FA
:10287000DC01CB018A839B83AC83BD8380915503AC
:1028800090915603A0915703B09158032A813B8140
:102890004C815D8179018A01E81AF90A0A0B1B0B48
:1028A000D801C70180319742A105B10538F081E018
:1028B00090E090935E0380935D0304C010925E03EA
:1028C00010925D0381E0898389810F900F900F90B2
:1028D0000F900F90DF91CF911F910F91FF90EF908C
:1028E0000895CF93DF93CDB7DEB780915F0391E07A
:1028F000980F90935F03882361F081E090E09093BC
:102900005E0380935D0380915F03815080935F033A
:1029100007C00E94B30380915F03815080935F03DF
:10292000DF91CF910895CF93DF9300D000D01F9215
:102930001F92CDB7DEB78AE097EDA3E2BCE38983AF
:102940009A83AB83BC831D821E821F8218861092DD
:10295000FB051092FA05D4D3BDDE80914B02909115
:102960004C02FC01118210820E947F05F89431DF35
:1029700080914B0290914C02FC018081918121E079
:10298000892B09F020E0822F8093FA05789417C0F4
:1029900080914B0290914C02FC018081918121E059
:1029A000892B09F420E0822F8093FB059091FB0591
:1029B00081E0992309F080E08093FA0512DF80918D
:1029C000FA05882329F70E942006F89480E090E019
:1029D00028960FB6F894DEBF0FBECDBFDF91CF9122
:1029E00008955058BB27AA270ED092C183D130F04A
:1029F00088D120F031F49F3F11F41EF478C10EF419
:102A0000E095E7FB45C1E92F94D180F3BA1762073F
:102A100073078407950718F071F49EF5C3C10EF48F
:102A2000E0950B2EBA2FA02D0B01B90190010C01DE
:102A3000CA01A0011124FF27591B99F0593F50F4F6
:102A4000503E68F11A16F040A22F232F342F44274E
:102A5000585FF3CF469537952795A795F040539546
:102A6000C9F77EF41F16BA0B620B730B840BBAF016
:102A70009150A1F0FF0FBB1F661F771F881FC2F781
:102A80000EC0BA0F621F731F841F48F48795779595
:102A90006795B795F7959E3F08F0B3CF9395880F4C
:102AA00008F09927EE0F979587950895CDD008F4F3
:102AB00081E0089546D188F09F5790F0B92F99276B
:102AC000B751A0F0D1F0660F771F881F991F1AF039
:102AD000BA95C9F712C0B13081F064D1B1E0089560
:102AE00061C1672F782F8827B85F39F0B93FCCF3E1
:102AF000869577956795B395D9F73EF4909580952F
:102B0000709561957F4F8F4F9F4F0895E89409C04E
:102B100097FB3EF490958095709561957F4F8F4F10
:102B20009F4F9923A9F0F92F96E9BB279395F69526
:102B3000879577956795B795F111F8CFFAF4BB0FA4
:102B400011F460FF1BC06F5F7F4F8F4F9F4F16C008
:102B5000882311F096E911C0772321F09EE8872F92
:102B6000762F05C0662371F096E8862F70E060E04E
:102B70002AF09A95660F771F881FDAF7880F9695C7
:102B8000879597F90895F7D080F09F3740F4911119
:102B90000EF009C160E070E080E89FEB089526F434
:102BA0001B16611D711D811D79C093C0A3D018F043
:102BB00011F0A7D038F49BC0F6C0E92FBAD0B0F31B
:102BC0005523C9F3E7FB6217730784079507A8F13C
:102BD00099F3E92FFF2788232AF03197660F771F93
:102BE000881FDAF7952F5527442332F09150504033
:102BF000220F331F441FD2F7BB27E91BF50B621BC3
:102C0000730B840BB109C1F222F4620F731F841F8E
:102C1000B11D31972AF0660F771F881FBB1FEFCFBA
:102C2000915050405AF041F0882332F0660F771FE0
:102C3000881F91505040C1F793954BC0869577956A
:102C400067959F5FD9F7F8CF990F0008550FAA0B2A
:102C5000E0E8FEEF16161706E807F907C0F01216AF
:102C60001306E407F50798F0621B730B840B950BB2
:102C700039F40A2661F0232B242B252B21F4089507
:102C80000A2609F4A140A6958FEF811D811D0895A4
:102C900097F99F6780E870E060E00895882371F4F9
:102CA000772321F09850872B762F07C0662311F4E5
:102CB00099270DC09051862B70E060E02AF09A951C
:102CC000660F771F881FDAF7880F9695879597F913
:102CD00008959F3F31F0915020F48795779567953F
:102CE000B795880F911D9695879597F908959FEF51
:102CF00080EC089500240A94161617061806090693
:102D0000089500240A941216130614060506089561
:102D1000092E0394000C11F4882352F0BB0F40F4E9
:102D2000BF2B11F460FF04C06F5F7F4F8F4F9F4F29
:102D3000089557FD9058440F551F59F05F3F71F0AB
:102D40004795880F97FB991F61F09F3F79F0879512
:102D50000895121613061406551FF2CF4695F1DF9B
:102D600008C0161617061806991FF1CF869571052B
:102D7000610508940895E5DFA0F0BEE7B91788F46F
:102D8000BB279F3860F41616B11D672F782F882750
:102D9000985FF7CF869577956795B11D939596398E
:102DA000C8F30895E894BB2766277727CB0197F9E6
:102DB00008950BD0ADCF9EDF28F0A3DF18F0952348
:102DC00009F066CF94CF1124EECFB3DFA0F3959F27
:102DD000D1F3950F50E0551F629FF001729FBB2702
:102DE000F00DB11D639FAA27F00DB11DAA1F649FAE
:102DF0006627B00DA11D661F829F2227B00DA11D61
:102E0000621F739FB00DA11D621F839FA00D611DE6
:102E1000221F749F3327A00D611D231F849F600D07
:102E2000211D822F762F6A2F11249F5750408AF040
:102E3000E1F088234AF0EE0FFF1FBB1F661F771FCC
:102E4000881F91505040A9F79E3F510570F020CF48
:102E5000AACF5F3FECF3983EDCF3869577956795B4
:102E6000B795F795E7959F5FC1F7FE2B880F911DEA
:102E70009695879597F908959F9305D00F9007FC35
:102E8000EE5F28C034CF5DDFE8F3E894E0E0BB27D5
:102E90009F57F0F02AED3FE049EC06C0EE0FBB0F64
:102EA000661F771F881F28F0B23A620773078407EE
:102EB00028F0B25A620B730B840BE3959A9572F764
:102EC000803830F49A95BB0F661F771F881FD2F7A2
:102ED000904801CFEF93E0FF06C0A2EA2AED3FE061
:102EE00049EC5FEB90DD14DF0F90039401FC9058E8
:102EF000E4EEF0E000C09F938F937F936F93FF9376
:102F0000EF939B01AC0155DFEF91FF9105D02F911D
:102F10003F914F915F914DCFDF93CF931F930F93CD
:102F2000FF92EF92DF927B018C01689405C0DA2E4C
:102F3000EF014BDFFE01E894A59125913591459174
:102F40005591AEF3EF015FDDFE019701A801DA9420
:102F500079F7DF90EF90FF900F911F91CF91DF9164
:102F600008951F920F920FB60F9211248F939F9383
:102F7000AF93BF93CF93DF93CDB7DEB72597DEBF77
:102F8000CDBF8091640390916503A0916603B091D9
:102F9000670389839A83AB83BC83809168038D83A5
:102FA00089819A81AB81BC810196A11DB11D898364
:102FB0009A83AB83BC838D818D5F8D838D818D37AB
:102FC00070F08D818D578D8389819A81AB81BC8111
:102FD0000196A11DB11D89839A83AB83BC838D812A
:102FE0008093680389819A81AB81BC81809364035B
:102FF00090936503A0936603B09367038091600389
:1030000090916103A0916203B09163030196A11DA9
:10301000B11D8093600390936103A0936203B0930A
:10302000630300000F900F900F900F900F90DF91AF
:10303000CF91BF91AF919F918F910F900FBE0F9045
:103040001F901895CF93DF9300D000D0CDB7DEB797
:103050008FE590E0FC0180818D83F894809160037E
:1030600090916103A0916203B091630389839A8375
:10307000AB83BC8386E490E0FC0180818E8385E392
:1030800090E0FC018081882F90E081709927892B46
:1030900071F08E818F3F59F089819A81AB81BC811B
:1030A0000196A11DB11D89839A83AB83BC838FE5F3
:1030B00090E02D81FC01208389819A81AB81BC81C4
:1030C0002227382F492F5A2F8E81882F90E0A0E099
:1030D000B0E0820F931FA41FB51F880F991FAA1F6E
:1030E000BB1F880F991FAA1FBB1FBC01CD012696CD
:1030F0000FB6F894DEBF0FBECDBFDF91CF9108951C
:10310000CF93DF93CDB7DEB7789484E490E0FC01F1
:10311000208184E490E02260FC01208384E490E03C
:10312000FC01208184E490E02160FC01208385E49F
:1031300090E0FC01208185E490E02260FC01208386
:1031400085E490E0FC01208185E490E02160FC01B1
:1031500020838EE690E0FC0120818EE690E02160E5
:10316000FC01208381E890E0FC01108281E890E07E
:10317000FC01208181E890E02260FC01208381E84D
:1031800090E0FC01208181E890E02160FC01208337
:1031900080E890E0FC01208180E890E02160FC0163
:1031A000208381EB90E0FC01208181EB90E02460A2
:1031B000FC01208380EB90E0FC01208180EB90E01B
:1031C0002160FC01208381E990E0FC01208181E9FC
:1031D00090E02260FC01208381E990E0FC012081E5
:1031E00081E990E02160FC01208380E990E0FC010E
:1031F000208180E990E02160FC01208381EA90E059
:10320000FC01208181EA90E02260FC01208381EAB8
:1032100090E0FC01208181EA90E02160FC012083A4
:1032200080EA90E0FC01208180EA90E02160FC01CE
:10323000208381E291E0FC01208181E291E0226023
:10324000FC01208381E291E0FC01208181E291E098
:103250002160FC01208380E291E0FC01208180E27A
:1032600091E02160FC0120838AE790E0FC0120814D
:103270008AE790E02460FC0120838AE790E0FC016B
:1032800020818AE790E02260FC0120838AE790E0B9
:10329000FC0120818AE790E02160FC0120838AE71D
:1032A00090E0FC0120818AE790E02068FC01208307
:1032B00081EC90E0FC0110820000DF91CF91089535
:1032C000CF93DF93CDB7DEB70E94AF25CF93DF93C7
:1032D000CDB7DEB7F89481E0DF91CF910895CF9319
:1032E000DF931F921F92CDB7DEB79A8389838FE554
:1032F00090E029813A81F9012081FC0120830000BE
:103300000F900F90DF91CF910895CF93DF9300D06E
:10331000CDB7DEB79B838A838A819B81FC01848D34
:10332000882F90E02A813B81820F931F835A9F4F01
:10333000FC01808189838A819B81FC01848D882F97
:1033400090E001968F739078992324F40197806C14
:103350009F6F0196282F8A819B81FC01248F8A818F
:103360009B81FC01868997892981FC0120838A81C0
:103370009B81FC0180899189FC0180818370282FC9
:1033800020648A819B81FC0180899189FC012083D2
:103390008A819B81FC01238D8A819B81FC01948D14
:1033A00081E0291709F080E0882379F08A819B81E8
:1033B000FC0182899389FC0120818A819B81FC0127
:1033C000828993892F7DFC01208300000F900F904C
:1033D0000F90DF91CF910895CF93DF9300D000D06D
:1033E00000D0CDB7DEB79C838B834D835E836F8324
:1033F0007887298780E099E0ADE3B0E02D813E81B8
:103400004F815885BC01CD010E948423DA01C90196
:103410000197A109B109B695A795979587959A83C4
:1034200089838B819C81FC018089918922E0FC0148
:1034300020838D819E81AF81B8858115914EA10534
:10344000B10529F089819A8181159041F0F08B8135
:103450009C81FC0180899189FC01108280E894E8BC
:10346000AEE1B0E02D813E814F815885BC01CD0198
:103470000E948423DA01C9010197A109B109B69517
:10348000A795979587959A83898389819A81292F12
:1034900033278B819C81FC0184859585FC012083E9
:1034A0008B819C81FC01868597852981FC01208385
:1034B0008B819C81FC01108E8B819C81FC01848915
:1034C00095892985FC0120838B819C81FC0182895F
:1034D0009389FC0120818B819C81FC0182899389E5
:1034E0002061FC0120838B819C81FC01828993896E
:1034F000FC0120818B819C81FC0182899389286059
:10350000FC0120838B819C81FC0182899389FC01D1
:1035100020818B819C81FC01828993892068FC0138
:1035200020838B819C81FC0182899389FC0120810D
:103530008B819C81FC01828993892F7DFC012083F2
:10354000000029960FB6F894DEBF0FBECDBFDF9105
:10355000CF910895CF93DF931F921F92CDB7DEB71F
:103560009A83898389819A81FC01818D882F90E0DB
:103570009C01205C3F4F89819A81FC01828D882FBC
:1035800090E0A901481B590BCA018F7399270F902E
:103590000F90DF91CF910895CF93DF931F921F92E9
:1035A000CDB7DEB79A83898389819A81FC01218D09
:1035B00089819A81FC01928D81E0291709F080E0D0
:1035C000882319F08FEF9FEF0FC089819A81FC014A
:1035D000828D882F90E029813A81820F931F4D962A
:1035E000FC018081882F90E00F900F90DF91CF91A8
:1035F0000895CF93DF9300D0CDB7DEB79B838A8346
:103600008A819B81FC01218D8A819B81FC01928DA5
:1036100081E0291709F080E0882319F08FEF9FEFF0
:103620001CC08A819B81FC01828D882F90E02A81B9
:103630003B81820F931F4D96FC01808189838A8193
:103640009B81FC01828D8F5F282F2F738A819B8144
:10365000FC01228F8981882F90E00F900F900F90AE
:10366000DF91CF910895CF93DF9300D01F92CDB714
:10367000DEB79C838B838B819C81FC01838D898346
:103680008B819C81FC01848D8A8399818A81981722
:1036900068F08981882F90E02FE330E0281B390BF8
:1036A0008A81882F90E0820F931F0BC08A81282F78
:1036B00030E08981882F90E0A901481B590BCA018D
:1036C00001970F900F900F900F90DF91CF91089579
:1036D000CF93DF931F921F92CDB7DEB79A83898372
:1036E00089819A81FC01908D81E08927882309F0E6
:1036F0004DC089819A81FC0182899389FC01808176
:10370000882F90E080729927892B69F489819A81AA
:10371000FC0180899189FC018081882F90E0807470
:103720009927892B11F481E001C080E0882379F189
:103730008FE590E0FC01808188237CF089819A816B
:10374000FC0182899389FC018081882F90E080723E
:103750009927892B11F081E001C080E0882349F28C
:1037600089819A81FC0180899189FC018081882F5F
:1037700090E08072992721E0892B09F420E0222330
:1037800009F4B7CF89819A81C0DDB3CF00000F90D3
:103790000F90DF91CF910895CF93DF9300D000D0A9
:1037A0001F921F92CDB7DEB79F838E8368878E816D
:1037B0009F8121E0FC01208F8E819F81FC01238D60
:1037C0008E819F81FC01848D281779F48E819F81E1
:1037D000FC0180899189FC018081882F90E08072B2
:1037E0009927892B11F081E001C080E0882359F1ED
:1037F0008FE590E0FC0180818C8368DD898389817D
:103800008823D9F08E819F81FC018689978928853C
:10381000FC0120838E819F81FC0180899189FC01BC
:1038200080818370282F20648E819F81FC01808994
:103830009189FC0120831982E2CFCE0104964FDDED
:1038400081E090E06EC08E819F81FC01838D882F86
:1038500090E001968F739078992324F40197806CFF
:103860009F6F01968B838E819F81FC01948D81E0F7
:103870002B81291709F080E08823F9F08FE590E08B
:10388000FC0180818095881F8827881F882359F331
:103890008E819F81FC0180899189FC018081882F24
:1038A00090E08072992721E0892B09F420E02223FF
:1038B000D1F28E819F8129DDD6CF8E819F81FC013F
:1038C000838D882F90E02E813F81820F931F835A32
:1038D0009F4F2885FC0120838FE590E0FC018081CB
:1038E0008D83F4DC8A838A818823B1F08E819F8165
:1038F0002B81FC01238F8E819F81FC01828993891A
:10390000FC0120818E819F81FC0182899389206244
:10391000FC0120831A82E7CFCE010596E0DC81E02E
:1039200090E028960FB6F894DEBF0FBECDBFDF91B2
:10393000CF910895CF93DF931F921F92CDB7DEB73B
:103940009A83898389819A810E943E092FE732E018
:1039500089819A81FC013183208329813A8188EE13
:1039600093E0A0E0B0E0F90184839583A683B78358
:1039700000000F900F90DF91CF910895CF92DF92CA
:10398000EF92FF920F931F93CF93DF93CDB7DEB7E4
:103990002E970FB6F894DEBF0FBECDBF9A838983F2
:1039A0007C836B835E834D8338872F831A870987D7
:1039B000FC86EB86DE86CD8689819A81BBDF2DE68B
:1039C00032E089819A81FC013183208389819A8147
:1039D0002B813C81FC013587248789819A812D8147
:1039E0003E81FC013787268789819A812F8138851E
:1039F000FC01318B208B89819A8129853A85FC01D4
:103A0000338B228B89819A812B853C85FC01358BF8
:103A1000248B89819A812D853E85FC01378B268BED
:103A200089819A81FC01118E89819A81FC01128E13
:103A300089819A81FC01138E89819A81FC01148EFF
:103A400000002E960FB6F894DEBF0FBECDBFDF91FB
:103A5000CF911F910F91FF90EF90DF90CF9008953D
:103A6000CF93DF9300D01F92CDB7DEB79C838B83BB
:103A70008B819C81FC0180899189FC018081882F48
:103A800090E08470992721E0892B09F020E022231F
:103A900071F18B819C81FC0186899789FC01808171
:103AA00089838B819C81FC01818D8F5F8F738A83D9
:103AB0008B819C81FC01928D81E02A81291709F478
:103AC00080E08823D9F08B819C81FC01818D882F37
:103AD00090E02B813C81820F931F4D962981FC0140
:103AE00020838B819C812A81FC01218F07C08B81DF
:103AF0009C81FC0186899789FC01808100000F90E0
:103B00000F900F900F90DF91CF9108951F920F9219
:103B10000FB60F9211240BB60F922F933F934F9332
:103B20005F936F937F938F939F93AF93BF93EF9325
:103B3000FF93CF93DF93CDB7DEB789E693E090DFB5
:103B40000000DF91CF91FF91EF91BF91AF919F91D5
:103B50008F917F916F915F914F913F912F910F9036
:103B60000BBE0F900FBE0F901F9018951F920F92D3
:103B70000FB60F9211240BB60F922F933F934F93D2
:103B80005F936F937F938F939F93AF93BF93EF93C5
:103B9000FF93CF93DF93CDB7DEB789E693E0B5DB34
:103BA0000000DF91CF91FF91EF91BF91AF919F9175
:103BB0008F917F916F915F914F913F912F910F90D6
:103BC0000BBE0F900FBE0F901F901895CF92DF92F3
:103BD000EF92FF920F931F93CF93DF9300D01F922A
:103BE000CDB7DEB79A8389837C836B8389819A8181
:103BF0000197C9F48B819C810196A9F40F2EF6ECF4
:103C0000CF2ED12CF02D0F2EF2ECEF2EF12CF02D2B
:103C100001EC10E020EC30E044EC50E065EC70E0AA
:103C200089E693E0ABDE00000F900F900F900F90AD
:103C3000DF91CF911F910F91FF90EF90DF90CF9088
:103C40000895CF93DF93CDB7DEB76FEF7FEF81E0BD
:103C500090E0BCDFDF91CF9108951F920F920FB6D5
:103C60000F9211240BB60F922F933F934F935F93B4
:103C70006F937F938F939F93AF93BF93EF93FF9334
:103C8000CF93DF93CDB7DEB786E094E0E9DE0000A6
:103C9000DF91CF91FF91EF91BF91AF919F918F9164
:103CA0007F916F915F914F913F912F910F900BBE3C
:103CB0000F900FBE0F901F9018951F920F920FB686
:103CC0000F9211240BB60F922F933F934F935F9354
:103CD0006F937F938F939F93AF93BF93EF93FF93D4
:103CE000CF93DF93CDB7DEB786E094E00EDB000024
:103CF000DF91CF91FF91EF91BF91AF919F918F9104
:103D00007F916F915F914F913F912F910F900BBEDB
:103D10000F900FBE0F901F901895CF92DF92EF92E9
:103D2000FF920F931F93CF93DF9300D01F92CDB7D5
:103D3000DEB79A8389837C836B8389819A8101971B
:103D4000C9F48B819C810196A9F40F2EFEECCF2E35
:103D5000D12CF02D0F2EFAECEF2EF12CF02D09ECDA
:103D600010E028EC30E04CEC50E06DEC70E086E0C8
:103D700094E004DE00000F900F900F900F90DF9101
:103D8000CF911F910F91FF90EF90DF90CF9008950A
:103D9000CF93DF93CDB7DEB76FEF7FEF81E090E099
:103DA000BCDFDF91CF9108951F920F920FB60F9253
:103DB00011240BB60F922F933F934F935F936F9302
:103DC0007F938F939F93AF93BF93EF93FF93CF9383
:103DD000DF93CDB7DEB783EA94E042DE0000DF91E7
:103DE000CF91FF91EF91BF91AF919F918F917F9173
:103DF0006F915F914F913F912F910F900BBE0F905C
:103E00000FBE0F901F9018951F920F920FB60F9232
:103E100011240BB60F922F933F934F935F936F93A1
:103E20007F938F939F93AF93BF93EF93FF93CF9322
:103E3000DF93CDB7DEB783EA94E067DA0000DF9165
:103E4000CF91FF91EF91BF91AF919F918F917F9112
:103E50006F915F914F913F912F910F900BBE0F90FB
:103E60000FBE0F901F901895CF92DF92EF92FF92A6
:103E70000F931F93CF93DF9300D01F92CDB7DEB780
:103E80009A8389837C836B8389819A810197C9F4A2
:103E90008B819C810196A9F40F2EF6EDCF2ED12CAB
:103EA000F02D0F2EF2EDEF2EF12CF02D01ED10E0A4
:103EB00020ED30E044ED50E065ED70E083EA94E001
:103EC0005DDD00000F900F900F900F90DF91CF916C
:103ED0001F910F91FF90EF90DF90CF900895CF93B7
:103EE000DF93CDB7DEB76FEF7FEF81E090E0BCDF0F
:103EF000DF91CF9108951F920F920FB60F92112468
:103F00000BB60F922F933F934F935F936F937F93D3
:103F10008F939F93AF93BF93EF93FF93CF93DF93D1
:103F2000CDB7DEB780E495E09BDD0000DF91CF9157
:103F3000FF91EF91BF91AF919F918F917F916F9181
:103F40005F914F913F912F910F900BBE0F900FBE3D
:103F50000F901F9018951F920F920FB60F92112479
:103F60000BB60F922F933F934F935F936F937F9373
:103F70008F939F93AF93BF93EF93FF93CF93DF9371
:103F8000CDB7DEB780E495E0C0D90000DF91CF91D6
:103F9000FF91EF91BF91AF919F918F917F916F9121
:103FA0005F914F913F912F910F900BBE0F900FBEDD
:103FB0000F901F901895CF92DF92EF92FF920F9380
:103FC0001F93CF93DF9300D01F92CDB7DEB79A83B4
:103FD00089837C836B8389819A810197D9F48B8152
:103FE0009C810196B9F40F2EF6E3CF2EDD24D394F5
:103FF000F02D0F2EF2E3EF2EFF24F394F02D01E3CA
:1040000011E020E331E044E351E065E371E080E456
:1040100095E0B4DC00000F900F900F900F90DF91AF
:10402000CF911F910F91FF90EF90DF90CF90089567
:10403000CF93DF93CDB7DEB76FEF7FEF81E090E0F6
:10404000BADFDF91CF9108950F931F93CF93DF9342
:1040500000D01F92CDB7DEB79A8389837C836B83B0
:104060008B819C81892B19F480E090E014C08981B8
:104070009A81FC01808191810296FC01008111816D
:104080008B819C8187D5AC012B813C8189819A8170
:10409000B901F80119950F900F900F900F90DF91D3
:1040A000CF911F910F910895CF93DF9300D000D04F
:1040B0001F921F92CDB7DEB79C838B837E836D8367
:1040C00058874F831A8219828F8198859C012150CD
:1040D000310938872F8321E0892B09F420E022233E
:1040E00019F18B819C81FC0180819181FC012081EF
:1040F00031818D819E81AC014F5F5F4F5E834D8327
:10410000FC0140818B819C81642FF901199521E08C
:10411000892B09F420E0222331F089819A810196CC
:104120009A838983D1CF000089819A8128960FB61E
:10413000F894DEBF0FBECDBFDF91CF910895CF932E
:10414000DF9300D01F92CDB7DEB79A8389837C833B
:104150006B832B813C8189819A81B90175DF0F9036
:104160000F900F900F90DF91CF910895CF93DF9331
:1041700000D01F921F92CDB7DEB79A8389836B83DD
:104180005D834C838B81882F90E0A0E0B0E02C8190
:104190003D81E981FA81AC01BD01CF0108D00F90CA
:1041A0000F900F900F900F90DF91CF910895CF93C4
:1041B000DF9300D000D01F921F92CDB7DEB79A8355
:1041C00089834B835C836D837E8338872F838F81C4
:1041D0009885892B79F489819A81FC01808191816C
:1041E000FC01208131814B8189819A81642FF90101
:1041F00019950BC02F818B819C81AD81BE81E98196
:10420000FA81AC01BD01CF0142D028960FB6F894D7
:10421000DEBF0FBECDBFDF91CF910895CF93DF9367
:104220001F921F92CDB7DEB79A83898389819A81C5
:104230006CE372E009DF0F900F90DF91CF9108954A
:10424000CF93DF9300D000D0CDB7DEB79C838B83B4
:104250007E836D832D813E818B819C81B9016FDFCF
:104260009A8389838B819C81D9DF9C0189819A8182
:10427000820F931F9A83898389819A8126960FB62C
:10428000F894DEBF0FBECDBFDF91CF910895CF93DD
:10429000DF93CDB7DEB7AB970FB6F894DEBF0FBE96
:1042A000CDBF9EA38DA34FA358A769A77AA72BA71D
:1042B000CE01049680969A83898389819A81FC0134
:1042C00010828BA5823010F48AE08BA78BA5282F53
:1042D00030E040E050E08FA198A5A9A5BAA5BC01A7
:1042E000CD0112D2DC01CB018B838BA5282F30E0CE
:1042F00040E050E08FA198A5A9A5BAA5BC01CD01C9
:1043000003D2DA01C9018FA398A7A9A7BAA78B8105
:104310008A3024F48B81805D282F03C08B81895CD7
:10432000282F89819A8101979A83898389819A812B
:10433000FC0120838FA198A5A9A5BAA5892B8A2B5A
:104340008B2B09F0C3CF29813A818DA19EA1B901A0
:104350007BDEAB960FB6F894DEBF0FBECDBFDF910C
:10436000CF910895CF93DF93CDB7DEB72D970FB6DA
:10437000F894DEBF0FBECDBF9B878A876C874D87C1
:104380008A859B8531D08D85282F30E08C85882FBC
:1043900090E0A9019E012F5F3F4FB90113D48A8598
:1043A0009B859E012F5F3F4FB9011CD100002D96C8
:1043B0000FB6F894DEBF0FBECDBFDF91CF91089549
:1043C000CF93DF931F921F92CDB7DEB79A83898375
:1043D00089819A81FC01808191815CD200000F90DB
:1043E0000F90DF91CF910895CF93DF931F921F928B
:1043F000CDB7DEB79A83898389819A81FC011182C6
:10440000108289819A81FC011382128289819A81AA
:10441000FC011582148200000F900F90DF91CF9164
:104420000895CF93DF931F921F92CDB7DEB79A8383
:10443000898389819A81FC0180819181892B31F066
:1044400089819A81FC018081918124D289819A811C
:10445000FC011182108289819A81FC0115821482EB
:1044600089819A81FC012481358189819A81FC01AD
:104470003383228300000F900F90DF91CF91089536
:10448000CF93DF9300D01F92CDB7DEB79A83898395
:104490007C836B8389819A81FC0180819181892B46
:1044A00061F089819A81FC01828193812B813C8119
:1044B0008217930710F081E01EC02B813C81898117
:1044C0009A81B9011FD0982F81E0992309F480E0E7
:1044D000882381F089819A81FC0184819581892BCF
:1044E00039F489819A81FC0180819181FC011082DB
:1044F00081E001C080E00F900F900F900F90DF914E
:10450000CF910895CF93DF9300D000D0CDB7DEB721
:104510009C838B837E836D838D819E819C012F5F25
:104520003F4F8B819C81FC0180819181B9013BD2FD
:104530009A83898389819A81892B81F08B819C81DF
:1045400029813A81FC01318320838B819C812D81DB
:104550003E81FC013383228381E001C080E0269606
:104560000FB6F894DEBF0FBECDBFDF91CF91089597
:10457000CF93DF9300D000D0CDB7DEB79A83898385
:104580007C836B835E834D832D813E8189819A81FB
:10459000B90176DF982F81E0992309F080E0882324
:1045A00031F089819A813DDF89819A8112C08981A8
:1045B0009A812D813E81FC013583248389819A81F2
:1045C000FC01808191812B813C81B901DCD2898100
:1045D0009A8126960FB6F894DEBF0FBECDBFDF914D
:1045E000CF910895CF93DF9300D01F92CDB7DEB760
:1045F0009A8389837C836B838B819C81892B59F07F
:104600008B819C81C7D2AC012B813C8189819A81AD
:10461000B901AEDF03C089819A8103DF89819A8164
:104620000F900F900F900F90DF91CF910895CF933F
:10463000DF9300D000D000D01F92CDB7DEB79C83AF
:104640008B837E836D8358874F833A8729878F8139
:104650009885892B09F44EC08D819E81892B09F4A0
:1046600049C08B819C81FC018481958129853A8593
:104670002817390728F08D819E81FC0110823BC0EC
:104680008F81988501979A8389838B819C81FC0116
:104690002481358189859A85A901481B590BCA0156
:1046A00029813A818217930768F48B819C81FC01F0
:1046B0002481358189859A85A901481B590BCA0136
:1046C0009A8389838B819C81FC012081318189853A
:1046D0009A85280F391F49815A818D819E81B901A0
:1046E00062D22D813E8189819A81820F931FFC01C4
:1046F000108201C000002A960FB6F894DEBF0FBEEC
:10470000CDBFDF91CF910895A1E21A2EAA1BBB1B4A
:10471000FD010DC0AA1FBB1FEE1FFF1FA217B3078D
:10472000E407F50720F0A21BB30BE40BF50B661FA3
:10473000771F881F991F1A9469F760957095809567
:1047400090959B01AC01BD01CF010895EE0FFF1FB5
:10475000881F8BBF0790F691E02D19940F931F933C
:10476000CF93DF938230910510F482E090E0E091E6
:10477000FE05F091FF0530E020E0B0E0A0E03097CA
:1047800099F42115310509F44AC0281B390B24304E
:104790003105D8F58A819B816115710589F1FB018D
:1047A00093838283FE0111C0408151810281138174
:1047B00048175907E0F04817590799F4109761F026
:1047C00012960C93129713961C933296CF01DF9199
:1047D000CF911F910F9108950093FE051093FF054F
:1047E000F4CF2115310551F04217530738F0A901D4
:1047F000DB019A01BD01DF01F801C1CFEF01F9CF63
:104800009093FF058093FE05CDCFFE01E20FF31FCD
:10481000819391932250310939832883D7CF2091F6
:10482000FC053091FD05232B41F4209102023091CB
:1048300003023093FD052093FC0520910002309186
:1048400001022115310541F42DB73EB74091040214
:1048500050910502241B350BE091FC05F091FD05FC
:10486000E217F307A0F42E1B3F0B2817390778F047
:10487000AC014E5F5F4F2417350748F04E0F5F1FA6
:104880005093FD054093FC05819391939FCFF0E0F9
:10489000E0E09CCFCF93DF930097E9F0FC013297E3
:1048A00013821282A091FE05B091FF05ED0130E068
:1048B00020E01097A1F420813181820F931F209175
:1048C000FC053091FD052817390709F061C0F09308
:1048D000FD05E093FC05DF91CF910895EA01CE1725
:1048E000DF07E8F54A815B819E0141155105B1F76B
:1048F000E901FB83EA8349915991C40FD51FEC1755
:10490000FD0761F4808191810296840F951FE90172
:1049100099838883828193819B838A83F0E0E0E09E
:1049200012968D919C9113970097B9F52D913C911A
:104930001197CD010296820F931F2091FC053091B3
:10494000FD052817390739F6309751F51092FF0504
:104950001092FE05B093FD05A093FC05BCCFD38358
:10496000C28340815181840F951FC817D90761F414
:104970004E5F5F4F88819981480F591F5183408353
:104980008A819B81938382832115310509F0B0CF01
:10499000F093FF05E093FE059ECFFD01DC01C0CF43
:1049A00013821282D7CF4F925F926F927F928F9233
:1049B0009F92AF92BF92CF92DF92EF92FF920F93AE
:1049C0001F93CF93DF938C01009791F4CB01DF917C
:1049D000CF911F910F91FF90EF90DF90CF90BF90FC
:1049E000AF909F908F907F906F905F904F90B6CEDA
:1049F000FC01E60FF71F9C0122503109E217F30773
:104A000008F4AAC0D901CD91DC911197C617D70738
:104A100018F1C530D10570F0CE01049786179707BD
:104A200048F0C61BD70B2297C193D1936D937C930B
:104A3000CF0130DFC801DF91CF911F910F91FF901F
:104A4000EF90DF90CF90BF90AF909F908F907F902E
:104A50006F905F904F9008955B01AC1ABD0A4C01B6
:104A60008C0E9D1EA091FE05B091FF05512C412C8E
:104A7000F12CE12C109731F58091FC059091FD050A
:104A80008815990509F05CC04616570608F058C00D
:104A90008091000290910102009741F48DB79EB77A
:104AA0004091040250910502841B950BE817F90709
:104AB00008F052C0F093FD05E093FC05F901718305
:104AC0006083B8CF8D919C91119712966C9012973C
:104AD00013967C901397A815B90559F56C0142E01F
:104AE000C40ED11CCA14DB0420F1AC014A195B09C5
:104AF000DA011296159780F06282738251834083A7
:104B0000D9016D937C93E114F10471F0D7011396F0
:104B1000FC93EE9312978ECF22968C0F9D1FF90176
:104B200091838083F301EFCFF093FF05E093FE05BF
:104B300081CF4816590608F42C017D01D3019ACF84
:104B4000CB010CDE7C01009739F0AE01B8010BD02F
:104B5000C801A0DE87016ECF10E000E06BCF81E0DE
:104B600090E0F89462C0FB01DC0102C001900D925C
:104B700041505040D8F70895DC0101C06D93415079
:104B80005040E0F70895FB01DC0101900D920020F8
:104B9000E1F70895FC0101900020E9F780959095D8
:104BA0008E0F9F1F0895FB01DC014150504048F0DB
:104BB00001900D920020C9F701C01D924150504054
:104BC000E0F708954532510518F4423008F004C06A
:104BD000FB011082CB010895BB27FB015527AA27B3
:104BE000880F991FAA1FA41710F0A41B839550517A
:104BF000B9F7A05DAA3308F0A95DA193009779F7F2
:104C0000B111B1931192CB0100C0DC01FC01672FFF
:104C100071917723E1F7329704C07C916D93708393
:0E4C20006291AE17BF07C8F30895F894FFCF56
:104C2E000000000680000000004000000000DB0FC6
:104C3E00C940000000000F1E466978656453746514
:104C4E007044697363726574650054656D703A00E3
:104C5E00432C0048756D64743A0025000D0A006EF1
:104C6E00616E00696E66006F7666009A0200000043
:104C7E0000D50D542058096709971100000000D582
:104C8E000D542058096709601900000000CC1B5410
:104C9E0020331B681BAA1AF91ACC1A0000000060F8
:104CAE00195420580967096019601960190000002D
:0A4CBE00006019542058096709002E
:00000001FF
